{
  "contractName": "nUSDGovernance",
  "abi": [
    {
      "inputs": [
        {
          "internalType": "address",
          "name": "_aggregatorV3InterfaceAddress",
          "type": "address"
        },
        {
          "internalType": "address",
          "name": "_priceOracle",
          "type": "address"
        }
      ],
      "stateMutability": "nonpayable",
      "type": "constructor"
    },
    {
      "inputs": [],
      "name": "_nUSD",
      "outputs": [
        {
          "internalType": "contract nUSDStableCoin",
          "name": "",
          "type": "address"
        }
      ],
      "stateMutability": "view",
      "type": "function",
      "constant": true
    },
    {
      "inputs": [
        {
          "internalType": "address",
          "name": "",
          "type": "address"
        }
      ],
      "name": "deposit_reputation",
      "outputs": [
        {
          "internalType": "uint256",
          "name": "",
          "type": "uint256"
        }
      ],
      "stateMutability": "view",
      "type": "function",
      "constant": true
    },
    {
      "inputs": [],
      "name": "priceOracle",
      "outputs": [
        {
          "internalType": "contract IPriceOracle",
          "name": "",
          "type": "address"
        }
      ],
      "stateMutability": "view",
      "type": "function",
      "constant": true
    },
    {
      "inputs": [
        {
          "internalType": "address",
          "name": "",
          "type": "address"
        }
      ],
      "name": "redeem_reputation",
      "outputs": [
        {
          "internalType": "uint256",
          "name": "",
          "type": "uint256"
        }
      ],
      "stateMutability": "view",
      "type": "function",
      "constant": true
    },
    {
      "inputs": [],
      "name": "deposit",
      "outputs": [],
      "stateMutability": "payable",
      "type": "function",
      "payable": true
    },
    {
      "inputs": [
        {
          "internalType": "uint256",
          "name": "_valueInWei",
          "type": "uint256"
        }
      ],
      "name": "redeem",
      "outputs": [],
      "stateMutability": "nonpayable",
      "type": "function"
    },
    {
      "inputs": [
        {
          "internalType": "uint256",
          "name": "_valueInWei",
          "type": "uint256"
        },
        {
          "internalType": "uint256",
          "name": "_priceInWei",
          "type": "uint256"
        }
      ],
      "name": "getTokenToSubmit",
      "outputs": [
        {
          "internalType": "uint256",
          "name": "",
          "type": "uint256"
        }
      ],
      "stateMutability": "pure",
      "type": "function",
      "constant": true
    },
    {
      "inputs": [
        {
          "internalType": "uint256",
          "name": "_tokenInWei",
          "type": "uint256"
        },
        {
          "internalType": "uint256",
          "name": "_priceInWei",
          "type": "uint256"
        }
      ],
      "name": "getEtherForTokens",
      "outputs": [
        {
          "internalType": "uint256",
          "name": "",
          "type": "uint256"
        }
      ],
      "stateMutability": "pure",
      "type": "function",
      "constant": true
    }
  ],
  "bytecode": "0x60806040523480156200001157600080fd5b50604051620035913803806200359183398181016040528101906200003791906200020a565b6001600081905550306040516200004e9062000192565b6200005a919062000313565b604051809103906000f08015801562000077573d6000803e3d6000fd5b50600260006101000a81548173ffffffffffffffffffffffffffffffffffffffff021916908373ffffffffffffffffffffffffffffffffffffffff16021790555080600160006101000a81548173ffffffffffffffffffffffffffffffffffffffff021916908373ffffffffffffffffffffffffffffffffffffffff160217905550600160009054906101000a900473ffffffffffffffffffffffffffffffffffffffff1673ffffffffffffffffffffffffffffffffffffffff166326ba7898836040518263ffffffff1660e01b81526004016200015691906200035a565b600060405180830381600087803b1580156200017157600080fd5b505af115801562000186573d6000803e3d6000fd5b50505050505062000377565b6120d080620014c183390190565b600080fd5b600073ffffffffffffffffffffffffffffffffffffffff82169050919050565b6000620001d282620001a5565b9050919050565b620001e481620001c5565b8114620001f057600080fd5b50565b6000815190506200020481620001d9565b92915050565b60008060408385031215620002245762000223620001a0565b5b60006200023485828601620001f3565b92505060206200024785828601620001f3565b9150509250929050565b600082825260208201905092915050565b7f6e555344537461626c6520436f696e0000000000000000000000000000000000600082015250565b60006200029a600f8362000251565b9150620002a78262000262565b602082019050919050565b7f6e55534400000000000000000000000000000000000000000000000000000000600082015250565b6000620002ea60048362000251565b9150620002f782620002b2565b602082019050919050565b6200030d81620001c5565b82525050565b600060608201905081810360008301526200032e816200028b565b905081810360208301526200034381620002db565b905062000354604083018462000302565b92915050565b600060208201905062000371600083018462000302565b92915050565b61113a80620003876000396000f3fe60806040526004361061007b5760003560e01c8063db006a751161004e578063db006a751461011d578063dbc7445514610146578063dcdc7e0c14610183578063f71b58fa146101c05761007b565b80632630c12f1461008057806369e53238146100ab578063d0e30db0146100e8578063d87896c5146100f2575b600080fd5b34801561008c57600080fd5b506100956101fd565b6040516100a29190610ae1565b60405180910390f35b3480156100b757600080fd5b506100d260048036038101906100cd9190610b3f565b610223565b6040516100df9190610b85565b60405180910390f35b6100f061023b565b005b3480156100fe57600080fd5b506101076104b4565b6040516101149190610bc1565b60405180910390f35b34801561012957600080fd5b50610144600480360381019061013f9190610c08565b6104da565b005b34801561015257600080fd5b5061016d60048036038101906101689190610c35565b61093a565b60405161017a9190610b85565b60405180910390f35b34801561018f57600080fd5b506101aa60048036038101906101a59190610b3f565b610989565b6040516101b79190610b85565b60405180910390f35b3480156101cc57600080fd5b506101e760048036038101906101e29190610c35565b6109a1565b6040516101f49190610b85565b60405180910390f35b600160009054906101000a900473ffffffffffffffffffffffffffffffffffffffff1681565b60036020528060005260406000206000915090505481565b6102436109dd565b670de0b6b3a7640000341015806102a657506000341180156102a557506064600360003373ffffffffffffffffffffffffffffffffffffffff1673ffffffffffffffffffffffffffffffffffffffff1681526020019081526020016000205411155b5b6102e5576040517f08c379a00000000000000000000000000000000000000000000000000000000081526004016102dc90610cd2565b60405180910390fd5b6000600160009054906101000a900473ffffffffffffffffffffffffffffffffffffffff1673ffffffffffffffffffffffffffffffffffffffff166397b854206040518163ffffffff1660e01b81526004016020604051808303816000875af1158015610356573d6000803e3d6000fd5b505050506040513d601f19601f8201168201806040525081019061037a9190610d07565b905060006103913483610a2c90919063ffffffff16565b905060006103b0671bc16d674ec8000083610a4290919063ffffffff16565b9050600260009054906101000a900473ffffffffffffffffffffffffffffffffffffffff1673ffffffffffffffffffffffffffffffffffffffff1663233ebc8b33836040518363ffffffff1660e01b815260040161040f929190610d43565b600060405180830381600087803b15801561042957600080fd5b505af115801561043d573d6000803e3d6000fd5b50505050670de0b6b3a76400003410156104a757600360003373ffffffffffffffffffffffffffffffffffffffff1673ffffffffffffffffffffffffffffffffffffffff16815260200190815260200160002060008154809291906104a190610d9b565b91905055505b5050506104b2610a58565b565b600260009054906101000a900473ffffffffffffffffffffffffffffffffffffffff1681565b6104e26109dd565b60008111610525576040517f08c379a000000000000000000000000000000000000000000000000000000000815260040161051c90610e2f565b60405180910390fd5b6706f05b59d3b2000081101580610588575060008111801561058757506064600460003373ffffffffffffffffffffffffffffffffffffffff1673ffffffffffffffffffffffffffffffffffffffff1681526020019081526020016000205411155b5b6105c7576040517f08c379a00000000000000000000000000000000000000000000000000000000081526004016105be90610e9b565b60405180910390fd5b6000600160009054906101000a900473ffffffffffffffffffffffffffffffffffffffff1673ffffffffffffffffffffffffffffffffffffffff166397b854206040518163ffffffff1660e01b81526004016020604051808303816000875af1158015610638573d6000803e3d6000fd5b505050506040513d601f19601f8201168201806040525081019061065c9190610d07565b9050600061066a838361093a565b905080600260009054906101000a900473ffffffffffffffffffffffffffffffffffffffff1673ffffffffffffffffffffffffffffffffffffffff166370a08231336040518263ffffffff1660e01b81526004016106c89190610ebb565b602060405180830381865afa1580156106e5573d6000803e3d6000fd5b505050506040513d601f19601f820116820180604052508101906107099190610d07565b101561074a576040517f08c379a000000000000000000000000000000000000000000000000000000000815260040161074190610f22565b60405180910390fd5b60008390503373ffffffffffffffffffffffffffffffffffffffff166108fc829081150290604051600060405180830381858888f19350505050158015610795573d6000803e3d6000fd5b50600260009054906101000a900473ffffffffffffffffffffffffffffffffffffffff1673ffffffffffffffffffffffffffffffffffffffff166323b872dd3330856040518463ffffffff1660e01b81526004016107f593929190610f42565b6020604051808303816000875af1158015610814573d6000803e3d6000fd5b505050506040513d601f19601f820116820180604052508101906108389190610fb1565b50600260009054906101000a900473ffffffffffffffffffffffffffffffffffffffff1673ffffffffffffffffffffffffffffffffffffffff16637b47ec1a836040518263ffffffff1660e01b81526004016108949190610b85565b600060405180830381600087803b1580156108ae57600080fd5b505af11580156108c2573d6000803e3d6000fd5b505050506706f05b59d3b2000084101561092c57600460003373ffffffffffffffffffffffffffffffffffffffff1673ffffffffffffffffffffffffffffffffffffffff168152602001908152602001600020600081548092919061092690610d9b565b91905055505b505050610937610a58565b50565b60008061097d670de0b6b3a764000061096f60026109618888610a2c90919063ffffffff16565b610a2c90919063ffffffff16565b610a4290919063ffffffff16565b90508091505092915050565b60046020528060005260406000206000915090505481565b6000806109d1836109c36706f05b59d3b2000087610a2c90919063ffffffff16565b610a4290919063ffffffff16565b90508091505092915050565b600260005403610a22576040517f08c379a0000000000000000000000000000000000000000000000000000000008152600401610a199061102a565b60405180910390fd5b6002600081905550565b60008183610a3a919061104a565b905092915050565b60008183610a5091906110d3565b905092915050565b6001600081905550565b600073ffffffffffffffffffffffffffffffffffffffff82169050919050565b6000819050919050565b6000610aa7610aa2610a9d84610a62565b610a82565b610a62565b9050919050565b6000610ab982610a8c565b9050919050565b6000610acb82610aae565b9050919050565b610adb81610ac0565b82525050565b6000602082019050610af66000830184610ad2565b92915050565b600080fd5b6000610b0c82610a62565b9050919050565b610b1c81610b01565b8114610b2757600080fd5b50565b600081359050610b3981610b13565b92915050565b600060208284031215610b5557610b54610afc565b5b6000610b6384828501610b2a565b91505092915050565b6000819050919050565b610b7f81610b6c565b82525050565b6000602082019050610b9a6000830184610b76565b92915050565b6000610bab82610aae565b9050919050565b610bbb81610ba0565b82525050565b6000602082019050610bd66000830184610bb2565b92915050565b610be581610b6c565b8114610bf057600080fd5b50565b600081359050610c0281610bdc565b92915050565b600060208284031215610c1e57610c1d610afc565b5b6000610c2c84828501610bf3565b91505092915050565b60008060408385031215610c4c57610c4b610afc565b5b6000610c5a85828601610bf3565b9250506020610c6b85828601610bf3565b9150509250929050565b600082825260208201905092915050565b7f596f7520617265206e6f7420616c6c6f77656420746f206465706f7369740000600082015250565b6000610cbc601e83610c75565b9150610cc782610c86565b602082019050919050565b60006020820190508181036000830152610ceb81610caf565b9050919050565b600081519050610d0181610bdc565b92915050565b600060208284031215610d1d57610d1c610afc565b5b6000610d2b84828501610cf2565b91505092915050565b610d3d81610b01565b82525050565b6000604082019050610d586000830185610d34565b610d656020830184610b76565b9392505050565b7f4e487b7100000000000000000000000000000000000000000000000000000000600052601160045260246000fd5b6000610da682610b6c565b91507fffffffffffffffffffffffffffffffffffffffffffffffffffffffffffffffff8203610dd857610dd7610d6c565b5b600182019050919050565b7f53686f756c642062652067726561746572207468616e20300000000000000000600082015250565b6000610e19601883610c75565b9150610e2482610de3565b602082019050919050565b60006020820190508181036000830152610e4881610e0c565b9050919050565b7f596f7520617265206e6f7420616c6c6f77656420746f20776974686472617700600082015250565b6000610e85601f83610c75565b9150610e9082610e4f565b602082019050919050565b60006020820190508181036000830152610eb481610e78565b9050919050565b6000602082019050610ed06000830184610d34565b92915050565b7f496e737566666369656e7420636f696e73000000000000000000000000000000600082015250565b6000610f0c601183610c75565b9150610f1782610ed6565b602082019050919050565b60006020820190508181036000830152610f3b81610eff565b9050919050565b6000606082019050610f576000830186610d34565b610f646020830185610d34565b610f716040830184610b76565b949350505050565b60008115159050919050565b610f8e81610f79565b8114610f9957600080fd5b50565b600081519050610fab81610f85565b92915050565b600060208284031215610fc757610fc6610afc565b5b6000610fd584828501610f9c565b91505092915050565b7f5265656e7472616e637947756172643a207265656e7472616e742063616c6c00600082015250565b6000611014601f83610c75565b915061101f82610fde565b602082019050919050565b6000602082019050818103600083015261104381611007565b9050919050565b600061105582610b6c565b915061106083610b6c565b9250817fffffffffffffffffffffffffffffffffffffffffffffffffffffffffffffffff048311821515161561109957611098610d6c565b5b828202905092915050565b7f4e487b7100000000000000000000000000000000000000000000000000000000600052601260045260246000fd5b60006110de82610b6c565b91506110e983610b6c565b9250826110f9576110f86110a4565b5b82820490509291505056fea26469706673582212202c3d9bbeb05ab8113b41dc68a1d9601bdcab79f7a403eff8f9ef1dc13fee717764736f6c634300080f003360806040523480156200001157600080fd5b50604051620020d0380380620020d08339818101604052810190620000379190620002ab565b828281600390816200004a919062000590565b5080600490816200005c919062000590565b50505080600560006101000a81548173ffffffffffffffffffffffffffffffffffffffff021916908373ffffffffffffffffffffffffffffffffffffffff16021790555050505062000677565b6000604051905090565b600080fd5b600080fd5b600080fd5b600080fd5b6000601f19601f8301169050919050565b7f4e487b7100000000000000000000000000000000000000000000000000000000600052604160045260246000fd5b6200011282620000c7565b810181811067ffffffffffffffff82111715620001345762000133620000d8565b5b80604052505050565b600062000149620000a9565b905062000157828262000107565b919050565b600067ffffffffffffffff8211156200017a5762000179620000d8565b5b6200018582620000c7565b9050602081019050919050565b60005b83811015620001b257808201518184015260208101905062000195565b83811115620001c2576000848401525b50505050565b6000620001df620001d9846200015c565b6200013d565b905082815260208101848484011115620001fe57620001fd620000c2565b5b6200020b84828562000192565b509392505050565b600082601f8301126200022b576200022a620000bd565b5b81516200023d848260208601620001c8565b91505092915050565b600073ffffffffffffffffffffffffffffffffffffffff82169050919050565b6000620002738262000246565b9050919050565b620002858162000266565b81146200029157600080fd5b50565b600081519050620002a5816200027a565b92915050565b600080600060608486031215620002c757620002c6620000b3565b5b600084015167ffffffffffffffff811115620002e857620002e7620000b8565b5b620002f68682870162000213565b935050602084015167ffffffffffffffff8111156200031a5762000319620000b8565b5b620003288682870162000213565b92505060406200033b8682870162000294565b9150509250925092565b600081519050919050565b7f4e487b7100000000000000000000000000000000000000000000000000000000600052602260045260246000fd5b600060028204905060018216806200039857607f821691505b602082108103620003ae57620003ad62000350565b5b50919050565b60008190508160005260206000209050919050565b60006020601f8301049050919050565b600082821b905092915050565b600060088302620004187fffffffffffffffffffffffffffffffffffffffffffffffffffffffffffffffff82620003d9565b620004248683620003d9565b95508019841693508086168417925050509392505050565b6000819050919050565b6000819050919050565b6000620004716200046b62000465846200043c565b62000446565b6200043c565b9050919050565b6000819050919050565b6200048d8362000450565b620004a56200049c8262000478565b848454620003e6565b825550505050565b600090565b620004bc620004ad565b620004c981848462000482565b505050565b5b81811015620004f157620004e5600082620004b2565b600181019050620004cf565b5050565b601f82111562000540576200050a81620003b4565b6200051584620003c9565b8101602085101562000525578190505b6200053d6200053485620003c9565b830182620004ce565b50505b505050565b600082821c905092915050565b6000620005656000198460080262000545565b1980831691505092915050565b600062000580838362000552565b9150826002028217905092915050565b6200059b8262000345565b67ffffffffffffffff811115620005b757620005b6620000d8565b5b620005c382546200037f565b620005d0828285620004f5565b600060209050601f831160018114620006085760008415620005f3578287015190505b620005ff858262000572565b8655506200066f565b601f1984166200061886620003b4565b60005b8281101562000642578489015182556001820191506020850194506020810190506200061b565b868310156200066257848901516200065e601f89168262000552565b8355505b6001600288020188555050505b505050505050565b611a4980620006876000396000f3fe608060405234801561001057600080fd5b50600436106101005760003560e01c806370a0823111610097578063a457c2d711610066578063a457c2d7146102ad578063a9059cbb146102dd578063b172b2221461030d578063dd62ed3e1461032b57610100565b806370a082311461022757806379cc6790146102575780637b47ec1a1461027357806395d89b411461028f57610100565b806323b872dd116100d357806323b872dd1461018d578063313ce567146101bd57806339509351146101db57806342966c681461020b57610100565b806306fdde0314610105578063095ea7b31461012357806318160ddd14610153578063233ebc8b14610171575b600080fd5b61010d61035b565b60405161011a91906110b1565b60405180910390f35b61013d6004803603810190610138919061116c565b6103ed565b60405161014a91906111c7565b60405180910390f35b61015b610410565b60405161016891906111f1565b60405180910390f35b61018b6004803603810190610186919061116c565b61041a565b005b6101a760048036038101906101a2919061120c565b6104b8565b6040516101b491906111c7565b60405180910390f35b6101c56104e7565b6040516101d2919061127b565b60405180910390f35b6101f560048036038101906101f0919061116c565b6104f0565b60405161020291906111c7565b60405180910390f35b61022560048036038101906102209190611296565b610527565b005b610241600480360381019061023c91906112c3565b61053b565b60405161024e91906111f1565b60405180910390f35b610271600480360381019061026c919061116c565b610583565b005b61028d60048036038101906102889190611296565b6105a3565b005b61029761063f565b6040516102a491906110b1565b60405180910390f35b6102c760048036038101906102c2919061116c565b6106d1565b6040516102d491906111c7565b60405180910390f35b6102f760048036038101906102f2919061116c565b610748565b60405161030491906111c7565b60405180910390f35b61031561076b565b60405161032291906112ff565b60405180910390f35b6103456004803603810190610340919061131a565b610791565b60405161035291906111f1565b60405180910390f35b60606003805461036a90611389565b80601f016020809104026020016040519081016040528092919081815260200182805461039690611389565b80156103e35780601f106103b8576101008083540402835291602001916103e3565b820191906000526020600020905b8154815290600101906020018083116103c657829003601f168201915b5050505050905090565b6000806103f8610818565b9050610405818585610820565b600191505092915050565b6000600254905090565b600560009054906101000a900473ffffffffffffffffffffffffffffffffffffffff1673ffffffffffffffffffffffffffffffffffffffff163373ffffffffffffffffffffffffffffffffffffffff16146104aa576040517f08c379a00000000000000000000000000000000000000000000000000000000081526004016104a190611406565b60405180910390fd5b6104b482826109e9565b5050565b6000806104c3610818565b90506104d0858285610b3f565b6104db858585610bcb565b60019150509392505050565b60006012905090565b6000806104fb610818565b905061051c81858561050d8589610791565b6105179190611455565b610820565b600191505092915050565b610538610532610818565b82610e41565b50565b60008060008373ffffffffffffffffffffffffffffffffffffffff1673ffffffffffffffffffffffffffffffffffffffff168152602001908152602001600020549050919050565b6105958261058f610818565b83610b3f565b61059f8282610e41565b5050565b600560009054906101000a900473ffffffffffffffffffffffffffffffffffffffff1673ffffffffffffffffffffffffffffffffffffffff163373ffffffffffffffffffffffffffffffffffffffff1614610633576040517f08c379a000000000000000000000000000000000000000000000000000000000815260040161062a90611406565b60405180910390fd5b61063c81610527565b50565b60606004805461064e90611389565b80601f016020809104026020016040519081016040528092919081815260200182805461067a90611389565b80156106c75780601f1061069c576101008083540402835291602001916106c7565b820191906000526020600020905b8154815290600101906020018083116106aa57829003601f168201915b5050505050905090565b6000806106dc610818565b905060006106ea8286610791565b90508381101561072f576040517f08c379a00000000000000000000000000000000000000000000000000000000081526004016107269061151d565b60405180910390fd5b61073c8286868403610820565b60019250505092915050565b600080610753610818565b9050610760818585610bcb565b600191505092915050565b600560009054906101000a900473ffffffffffffffffffffffffffffffffffffffff1681565b6000600160008473ffffffffffffffffffffffffffffffffffffffff1673ffffffffffffffffffffffffffffffffffffffff16815260200190815260200160002060008373ffffffffffffffffffffffffffffffffffffffff1673ffffffffffffffffffffffffffffffffffffffff16815260200190815260200160002054905092915050565b600033905090565b600073ffffffffffffffffffffffffffffffffffffffff168373ffffffffffffffffffffffffffffffffffffffff160361088f576040517f08c379a0000000000000000000000000000000000000000000000000000000008152600401610886906115af565b60405180910390fd5b600073ffffffffffffffffffffffffffffffffffffffff168273ffffffffffffffffffffffffffffffffffffffff16036108fe576040517f08c379a00000000000000000000000000000000000000000000000000000000081526004016108f590611641565b60405180910390fd5b80600160008573ffffffffffffffffffffffffffffffffffffffff1673ffffffffffffffffffffffffffffffffffffffff16815260200190815260200160002060008473ffffffffffffffffffffffffffffffffffffffff1673ffffffffffffffffffffffffffffffffffffffff168152602001908152602001600020819055508173ffffffffffffffffffffffffffffffffffffffff168373ffffffffffffffffffffffffffffffffffffffff167f8c5be1e5ebec7d5bd14f71427d1e84f3dd0314c0f7b2291e5b200ac8c7c3b925836040516109dc91906111f1565b60405180910390a3505050565b600073ffffffffffffffffffffffffffffffffffffffff168273ffffffffffffffffffffffffffffffffffffffff1603610a58576040517f08c379a0000000000000000000000000000000000000000000000000000000008152600401610a4f906116ad565b60405180910390fd5b610a646000838361100e565b8060026000828254610a769190611455565b92505081905550806000808473ffffffffffffffffffffffffffffffffffffffff1673ffffffffffffffffffffffffffffffffffffffff168152602001908152602001600020600082825401925050819055508173ffffffffffffffffffffffffffffffffffffffff16600073ffffffffffffffffffffffffffffffffffffffff167fddf252ad1be2c89b69c2b068fc378daa952ba7f163c4a11628f55a4df523b3ef83604051610b2791906111f1565b60405180910390a3610b3b60008383611013565b5050565b6000610b4b8484610791565b90507fffffffffffffffffffffffffffffffffffffffffffffffffffffffffffffffff8114610bc55781811015610bb7576040517f08c379a0000000000000000000000000000000000000000000000000000000008152600401610bae90611719565b60405180910390fd5b610bc48484848403610820565b5b50505050565b600073ffffffffffffffffffffffffffffffffffffffff168373ffffffffffffffffffffffffffffffffffffffff1603610c3a576040517f08c379a0000000000000000000000000000000000000000000000000000000008152600401610c31906117ab565b60405180910390fd5b600073ffffffffffffffffffffffffffffffffffffffff168273ffffffffffffffffffffffffffffffffffffffff1603610ca9576040517f08c379a0000000000000000000000000000000000000000000000000000000008152600401610ca09061183d565b60405180910390fd5b610cb483838361100e565b60008060008573ffffffffffffffffffffffffffffffffffffffff1673ffffffffffffffffffffffffffffffffffffffff16815260200190815260200160002054905081811015610d3a576040517f08c379a0000000000000000000000000000000000000000000000000000000008152600401610d31906118cf565b60405180910390fd5b8181036000808673ffffffffffffffffffffffffffffffffffffffff1673ffffffffffffffffffffffffffffffffffffffff16815260200190815260200160002081905550816000808573ffffffffffffffffffffffffffffffffffffffff1673ffffffffffffffffffffffffffffffffffffffff168152602001908152602001600020600082825401925050819055508273ffffffffffffffffffffffffffffffffffffffff168473ffffffffffffffffffffffffffffffffffffffff167fddf252ad1be2c89b69c2b068fc378daa952ba7f163c4a11628f55a4df523b3ef84604051610e2891906111f1565b60405180910390a3610e3b848484611013565b50505050565b600073ffffffffffffffffffffffffffffffffffffffff168273ffffffffffffffffffffffffffffffffffffffff1603610eb0576040517f08c379a0000000000000000000000000000000000000000000000000000000008152600401610ea790611961565b60405180910390fd5b610ebc8260008361100e565b60008060008473ffffffffffffffffffffffffffffffffffffffff1673ffffffffffffffffffffffffffffffffffffffff16815260200190815260200160002054905081811015610f42576040517f08c379a0000000000000000000000000000000000000000000000000000000008152600401610f39906119f3565b60405180910390fd5b8181036000808573ffffffffffffffffffffffffffffffffffffffff1673ffffffffffffffffffffffffffffffffffffffff1681526020019081526020016000208190555081600260008282540392505081905550600073ffffffffffffffffffffffffffffffffffffffff168373ffffffffffffffffffffffffffffffffffffffff167fddf252ad1be2c89b69c2b068fc378daa952ba7f163c4a11628f55a4df523b3ef84604051610ff591906111f1565b60405180910390a361100983600084611013565b505050565b505050565b505050565b600081519050919050565b600082825260208201905092915050565b60005b83811015611052578082015181840152602081019050611037565b83811115611061576000848401525b50505050565b6000601f19601f8301169050919050565b600061108382611018565b61108d8185611023565b935061109d818560208601611034565b6110a681611067565b840191505092915050565b600060208201905081810360008301526110cb8184611078565b905092915050565b600080fd5b600073ffffffffffffffffffffffffffffffffffffffff82169050919050565b6000611103826110d8565b9050919050565b611113816110f8565b811461111e57600080fd5b50565b6000813590506111308161110a565b92915050565b6000819050919050565b61114981611136565b811461115457600080fd5b50565b60008135905061116681611140565b92915050565b60008060408385031215611183576111826110d3565b5b600061119185828601611121565b92505060206111a285828601611157565b9150509250929050565b60008115159050919050565b6111c1816111ac565b82525050565b60006020820190506111dc60008301846111b8565b92915050565b6111eb81611136565b82525050565b600060208201905061120660008301846111e2565b92915050565b600080600060608486031215611225576112246110d3565b5b600061123386828701611121565b935050602061124486828701611121565b925050604061125586828701611157565b9150509250925092565b600060ff82169050919050565b6112758161125f565b82525050565b6000602082019050611290600083018461126c565b92915050565b6000602082840312156112ac576112ab6110d3565b5b60006112ba84828501611157565b91505092915050565b6000602082840312156112d9576112d86110d3565b5b60006112e784828501611121565b91505092915050565b6112f9816110f8565b82525050565b600060208201905061131460008301846112f0565b92915050565b60008060408385031215611331576113306110d3565b5b600061133f85828601611121565b925050602061135085828601611121565b9150509250929050565b7f4e487b7100000000000000000000000000000000000000000000000000000000600052602260045260246000fd5b600060028204905060018216806113a157607f821691505b6020821081036113b4576113b361135a565b5b50919050565b7f596f7520617265206e6f7420617574686f72697a656420746f206d696e740000600082015250565b60006113f0601e83611023565b91506113fb826113ba565b602082019050919050565b6000602082019050818103600083015261141f816113e3565b9050919050565b7f4e487b7100000000000000000000000000000000000000000000000000000000600052601160045260246000fd5b600061146082611136565b915061146b83611136565b9250827fffffffffffffffffffffffffffffffffffffffffffffffffffffffffffffffff038211156114a05761149f611426565b5b828201905092915050565b7f45524332303a2064656372656173656420616c6c6f77616e63652062656c6f7760008201527f207a65726f000000000000000000000000000000000000000000000000000000602082015250565b6000611507602583611023565b9150611512826114ab565b604082019050919050565b60006020820190508181036000830152611536816114fa565b9050919050565b7f45524332303a20617070726f76652066726f6d20746865207a65726f2061646460008201527f7265737300000000000000000000000000000000000000000000000000000000602082015250565b6000611599602483611023565b91506115a48261153d565b604082019050919050565b600060208201905081810360008301526115c88161158c565b9050919050565b7f45524332303a20617070726f766520746f20746865207a65726f20616464726560008201527f7373000000000000000000000000000000000000000000000000000000000000602082015250565b600061162b602283611023565b9150611636826115cf565b604082019050919050565b6000602082019050818103600083015261165a8161161e565b9050919050565b7f45524332303a206d696e7420746f20746865207a65726f206164647265737300600082015250565b6000611697601f83611023565b91506116a282611661565b602082019050919050565b600060208201905081810360008301526116c68161168a565b9050919050565b7f45524332303a20696e73756666696369656e7420616c6c6f77616e6365000000600082015250565b6000611703601d83611023565b915061170e826116cd565b602082019050919050565b60006020820190508181036000830152611732816116f6565b9050919050565b7f45524332303a207472616e736665722066726f6d20746865207a65726f20616460008201527f6472657373000000000000000000000000000000000000000000000000000000602082015250565b6000611795602583611023565b91506117a082611739565b604082019050919050565b600060208201905081810360008301526117c481611788565b9050919050565b7f45524332303a207472616e7366657220746f20746865207a65726f206164647260008201527f6573730000000000000000000000000000000000000000000000000000000000602082015250565b6000611827602383611023565b9150611832826117cb565b604082019050919050565b600060208201905081810360008301526118568161181a565b9050919050565b7f45524332303a207472616e7366657220616d6f756e742065786365656473206260008201527f616c616e63650000000000000000000000000000000000000000000000000000602082015250565b60006118b9602683611023565b91506118c48261185d565b604082019050919050565b600060208201905081810360008301526118e8816118ac565b9050919050565b7f45524332303a206275726e2066726f6d20746865207a65726f2061646472657360008201527f7300000000000000000000000000000000000000000000000000000000000000602082015250565b600061194b602183611023565b9150611956826118ef565b604082019050919050565b6000602082019050818103600083015261197a8161193e565b9050919050565b7f45524332303a206275726e20616d6f756e7420657863656564732062616c616e60008201527f6365000000000000000000000000000000000000000000000000000000000000602082015250565b60006119dd602283611023565b91506119e882611981565b604082019050919050565b60006020820190508181036000830152611a0c816119d0565b905091905056fea26469706673582212203693b74c0e2e58e2c18f482b515bc699a8cfa82adf37b9203791ddae40a1dfd064736f6c634300080f0033",
  "immutableReferences": {},
  "source": "// SPDX-License-Identifier: UNLICENSED\npragma solidity >=0.4.22 <0.9.0;\n\nimport \"@openzeppelin/contracts/security/ReentrancyGuard.sol\";\nimport \"@openzeppelin/contracts/utils/math/SafeMath.sol\";\n//import \"./PriceOracle.sol\";\nimport \"./nUSDStableCoin.sol\";\n\ninterface IPriceOracle {\n    function setDataFeedAddress(address contractaddress) external;\n    function colPriceToWei() external returns (uint256);\n}\n\ncontract nUSDGovernance is ReentrancyGuard {\n    using SafeMath for uint256;\n    IPriceOracle public priceOracle;\n    nUSDStableCoin public _nUSD;\n\n    /*Mapping to check denial of service attack\n    assuming if user try to deposit and withdraw \n    small ether < then .5 ether , it will store the \n    count in mapping\n    */\n    mapping(address => uint) public deposit_reputation;\n    mapping(address => uint) public redeem_reputation;\n\n    constructor(address _aggregatorV3InterfaceAddress, address _priceOracle) {\n        _nUSD = new nUSDStableCoin(\"nUSDStable Coin\", \"nUSD\", address(this));\n        priceOracle = IPriceOracle(_priceOracle);\n        priceOracle.setDataFeedAddress(_aggregatorV3InterfaceAddress);\n    }\n\n    function deposit() external payable nonReentrant {\n        require(\n            msg.value >= 1 ether ||\n                (msg.value > 0 && deposit_reputation[msg.sender] <= 100),\n            \"You are not allowed to deposit\"\n        );\n        uint priceInWei = priceOracle.colPriceToWei();\n        //uint priceInWei = 1868183412240000000000;\n\n        //uint noOftokenToMint = (priceInWei * msg.value) / (2 * (1 ether));\n        uint256 tempv1 = priceInWei.mul(msg.value);\n        uint256 noOftokenToMint = tempv1.div(2 ether);\n        _nUSD.minting(msg.sender, noOftokenToMint);\n        if (msg.value < 1 ether) {\n            deposit_reputation[msg.sender]++;\n        }\n    }\n\n    function redeem(uint _valueInWei) external nonReentrant {\n        require(_valueInWei > 0, \"Should be greater than 0\");\n        require(\n            _valueInWei >= (1 ether / 2) ||\n                (_valueInWei > 0 && redeem_reputation[msg.sender] <= 100),\n            \"You are not allowed to withdraw\"\n        );\n        //uint priceInWei = 1868183412240000000000;\n        uint priceInWei = priceOracle.colPriceToWei();\n        uint requiredTokens = getTokenToSubmit(_valueInWei, priceInWei);\n        require(\n            _nUSD.balanceOf(msg.sender) >= requiredTokens,\n            \"Insuffcient coins\"\n        );\n        uint weiToTransfer = _valueInWei;\n        payable(msg.sender).transfer(weiToTransfer);\n        _nUSD.transferFrom(msg.sender, address(this), requiredTokens);\n        _nUSD.burnToken(requiredTokens);\n        if (_valueInWei < (0.5 ether)) {\n            redeem_reputation[msg.sender]++;\n        }\n    }\n\n    function getTokenToSubmit(\n        uint _valueInWei,\n        uint _priceInWei\n    ) public pure returns (uint) {\n        //uint priceInWei = priceOracle.colPriceToWei();\n        //uint priceInWei = 1868183412240000000000;\n        //return (_priceInWei * 2 * _valueInWei) / 1 ether;\n        uint256 tempv1 = ((_priceInWei.mul(_valueInWei)).mul(2)).div(1 ether);\n        return tempv1;\n    }\n\n    function getEtherForTokens(\n        uint _tokenInWei,\n        uint _priceInWei\n    ) public pure returns (uint) {\n        //uint priceInWei = priceOracle.colPriceToWei();\n        //uint priceInWei = 1868183412240000000000;\n        //return (_tokenInWei * 1 ether) / (priceInWei * 2);\n        uint256 tempv1 = (_tokenInWei.mul(0.5 ether)).div(_priceInWei);\n        return tempv1;\n    }\n}\n",
  "sourcePath": "/Users/prasenjitgupta/Desktop/Blockchain/nUSDStableCoin/contracts/nUSDGovernance.sol",
  "compiler": {
    "name": "solc",
    "version": "0.8.15+commit.e14f2714.Emscripten.clang"
  },
  "schemaVersion": "3.4.8",
  "updatedAt": "2023-06-30T03:33:02.807Z",
  "networkType": "ethereum",
  "devdoc": {
    "kind": "dev",
    "methods": {},
    "version": 1
  },
  "userdoc": {
    "kind": "user",
    "methods": {},
    "version": 1
  }
}