{
  "contractName": "PriceOracle",
  "abi": [
    {
      "inputs": [],
      "name": "datafeed",
      "outputs": [
        {
          "internalType": "address",
          "name": "",
          "type": "address"
        }
      ],
      "stateMutability": "view",
      "type": "function",
      "constant": true
    },
    {
      "inputs": [],
      "name": "unstableColPrice",
      "outputs": [
        {
          "internalType": "uint256",
          "name": "",
          "type": "uint256"
        }
      ],
      "stateMutability": "view",
      "type": "function",
      "constant": true
    },
    {
      "inputs": [
        {
          "internalType": "address",
          "name": "contractaddress",
          "type": "address"
        }
      ],
      "name": "setDataFeedAddress",
      "outputs": [],
      "stateMutability": "nonpayable",
      "type": "function"
    },
    {
      "inputs": [],
      "name": "colPriceToWei",
      "outputs": [
        {
          "internalType": "uint256",
          "name": "",
          "type": "uint256"
        }
      ],
      "stateMutability": "nonpayable",
      "type": "function"
    }
  ],
  "bytecode": "0x608060405234801561001057600080fd5b50610504806100206000396000f3fe608060405234801561001057600080fd5b506004361061004c5760003560e01c806326ba7898146100515780632dc471531461006d5780635e6a4fb01461008b57806397b85420146100a9575b600080fd5b61006b600480360381019061006691906102d1565b6100c7565b005b61007561016d565b604051610082919061030d565b60405180910390f35b610093610193565b6040516100a09190610341565b60405180910390f35b6100b1610199565b6040516100be9190610341565b60405180910390f35b80600260006101000a81548173ffffffffffffffffffffffffffffffffffffffff021916908373ffffffffffffffffffffffffffffffffffffffff160217905550600260009054906101000a900473ffffffffffffffffffffffffffffffffffffffff166000806101000a81548173ffffffffffffffffffffffffffffffffffffffff021916908373ffffffffffffffffffffffffffffffffffffffff16021790555050565b600260009054906101000a900473ffffffffffffffffffffffffffffffffffffffff1681565b60015481565b60008060008054906101000a900473ffffffffffffffffffffffffffffffffffffffff1673ffffffffffffffffffffffffffffffffffffffff1663feaf968c6040518163ffffffff1660e01b815260040160a060405180830381865afa158015610207573d6000803e3d6000fd5b505050506040513d601f19601f8201168201806040525081019061022b91906103ca565b5050509150506102496402540be4008261025890919063ffffffff16565b60018190555060015491505090565b600081836102669190610474565b905092915050565b600080fd5b600073ffffffffffffffffffffffffffffffffffffffff82169050919050565b600061029e82610273565b9050919050565b6102ae81610293565b81146102b957600080fd5b50565b6000813590506102cb816102a5565b92915050565b6000602082840312156102e7576102e661026e565b5b60006102f5848285016102bc565b91505092915050565b61030781610293565b82525050565b600060208201905061032260008301846102fe565b92915050565b6000819050919050565b61033b81610328565b82525050565b60006020820190506103566000830184610332565b92915050565b600069ffffffffffffffffffff82169050919050565b61037b8161035c565b811461038657600080fd5b50565b60008151905061039881610372565b92915050565b6103a781610328565b81146103b257600080fd5b50565b6000815190506103c48161039e565b92915050565b600080600080600060a086880312156103e6576103e561026e565b5b60006103f488828901610389565b9550506020610405888289016103b5565b9450506040610416888289016103b5565b9350506060610427888289016103b5565b925050608061043888828901610389565b9150509295509295909350565b7f4e487b7100000000000000000000000000000000000000000000000000000000600052601160045260246000fd5b600061047f82610328565b915061048a83610328565b9250817fffffffffffffffffffffffffffffffffffffffffffffffffffffffffffffffff04831182151516156104c3576104c2610445565b5b82820290509291505056fea26469706673582212206e7e081a0b47f29a75671dc132f97527fc4fb8a8d3e35bd6ab15ee5d173fa83a64736f6c634300080f0033",
  "immutableReferences": {},
  "source": "// SPDX-License-Identifier: MIT\npragma solidity >=0.4.22 <0.9.0;\n\n//import \"@chainlink/contracts/src/v0.8/interfaces/AggregatorV3Interface.sol\";\nimport \"./AggregatorV3Interface.sol\";\nimport \"@openzeppelin/contracts/utils/math/SafeMath.sol\";\n\ncontract PriceOracle {\n    using SafeMath for uint256;\n\n    AggregatorV3Interface private priceOracle;\n    uint256 public unstableColPrice;\n    address public datafeed;\n\n    function setDataFeedAddress(address contractaddress) external {\n        datafeed = contractaddress;\n        priceOracle = AggregatorV3Interface(datafeed);\n    }\n\n    function colPriceToWei() external returns (uint256) {\n        (, uint256 price, , , ) = priceOracle.latestRoundData();\n        unstableColPrice = price.mul(1e10);\n        return unstableColPrice;\n    }\n}\n",
  "sourcePath": "/Users/prasenjitgupta/Desktop/Blockchain/nUSDStableCoin/contracts/PriceOracle.sol",
  "compiler": {
    "name": "solc",
    "version": "0.8.15+commit.e14f2714.Emscripten.clang"
  },
  "schemaVersion": "3.4.8",
  "updatedAt": "2023-06-30T03:33:02.802Z",
  "networkType": "ethereum",
  "devdoc": {
    "kind": "dev",
    "methods": {},
    "version": 1
  },
  "userdoc": {
    "kind": "user",
    "methods": {},
    "version": 1
  }
}